{
    "_format": "hh-sol-artifact-1",
    "contractName": "WavePortal",
    "sourceName": "contracts/WavePortal.sol",
    "abi": [
        {
            "inputs": [],
            "stateMutability": "nonpayable",
            "type": "constructor"
        },
        {
            "inputs": [],
            "name": "getAddresses",
            "outputs": [
                {
                    "internalType": "address[]",
                    "name": "",
                    "type": "address[]"
                }
            ],
            "stateMutability": "view",
            "type": "function"
        },
        {
            "inputs": [],
            "name": "getTotalWaves",
            "outputs": [
                {
                    "internalType": "uint256",
                    "name": "",
                    "type": "uint256"
                }
            ],
            "stateMutability": "view",
            "type": "function"
        },
        {
            "inputs": [],
            "name": "wave",
            "outputs": [],
            "stateMutability": "nonpayable",
            "type": "function"
        }
    ],
    "bytecode": "0x608060405234801561001057600080fd5b5061003c60405180606001604052806025815260200161099a6025913961004160201b6102d61760201c565b6101bb565b6100dd816040516024016100559190610199565b6040516020818303038152906040527f41304fac000000000000000000000000000000000000000000000000000000007bffffffffffffffffffffffffffffffffffffffffffffffffffffffff19166020820180517bffffffffffffffffffffffffffffffffffffffffffffffffffffffff83818316178352505050506100e060201b60201c565b50565b60008151905060006a636f6e736f6c652e6c6f679050602083016000808483855afa5050505050565b600081519050919050565b600082825260208201905092915050565b60005b83811015610143578082015181840152602081019050610128565b60008484015250505050565b6000601f19601f8301169050919050565b600061016b82610109565b6101758185610114565b9350610185818560208601610125565b61018e8161014f565b840191505092915050565b600060208201905081810360008301526101b38184610160565b905092915050565b6107d0806101ca6000396000f3fe608060405234801561001057600080fd5b50600436106100415760003560e01c80636fe15b44146100465780639a2cdc0814610050578063a39fac121461006e575b600080fd5b61004e61008c565b005b6100586101fa565b60405161006591906104e9565b60405180910390f35b610076610245565b60405161008391906105f4565b60405180910390f35b600160008082825461009e9190610645565b925050819055506001800160003373ffffffffffffffffffffffffffffffffffffffff1673ffffffffffffffffffffffffffffffffffffffff16815260200190815260200160002060009054906101000a900460ff166101b95760018060010160003373ffffffffffffffffffffffffffffffffffffffff1673ffffffffffffffffffffffffffffffffffffffff16815260200190815260200160002060006101000a81548160ff0219169083151502179055506001600001339080600181540180825580915050600190039060005260206000200160009091909190916101000a81548173ffffffffffffffffffffffffffffffffffffffff021916908373ffffffffffffffffffffffffffffffffffffffff1602179055505b6101f86040518060400160405280600d81526020017f25732068617320776176656421000000000000000000000000000000000000008152503361036f565b565b600061023d6040518060400160405280601781526020017f5765206861766520256420746f74616c2077617665732100000000000000000081525060005461040b565b600054905090565b606060016000018054806020026020016040519081016040528092919081815260200182805480156102cc57602002820191906000526020600020905b8160009054906101000a900473ffffffffffffffffffffffffffffffffffffffff1673ffffffffffffffffffffffffffffffffffffffff1681526020019060010190808311610282575b5050505050905090565b61036c816040516024016102ea9190610709565b6040516020818303038152906040527f41304fac000000000000000000000000000000000000000000000000000000007bffffffffffffffffffffffffffffffffffffffffffffffffffffffff19166020820180517bffffffffffffffffffffffffffffffffffffffffffffffffffffffff83818316178352505050506104a7565b50565b610407828260405160240161038592919061073a565b6040516020818303038152906040527f319af333000000000000000000000000000000000000000000000000000000007bffffffffffffffffffffffffffffffffffffffffffffffffffffffff19166020820180517bffffffffffffffffffffffffffffffffffffffffffffffffffffffff83818316178352505050506104a7565b5050565b6104a3828260405160240161042192919061076a565b6040516020818303038152906040527fb60e72cc000000000000000000000000000000000000000000000000000000007bffffffffffffffffffffffffffffffffffffffffffffffffffffffff19166020820180517bffffffffffffffffffffffffffffffffffffffffffffffffffffffff83818316178352505050506104a7565b5050565b60008151905060006a636f6e736f6c652e6c6f679050602083016000808483855afa5050505050565b6000819050919050565b6104e3816104d0565b82525050565b60006020820190506104fe60008301846104da565b92915050565b600081519050919050565b600082825260208201905092915050565b6000819050602082019050919050565b600073ffffffffffffffffffffffffffffffffffffffff82169050919050565b600061055b82610530565b9050919050565b61056b81610550565b82525050565b600061057d8383610562565b60208301905092915050565b6000602082019050919050565b60006105a182610504565b6105ab818561050f565b93506105b683610520565b8060005b838110156105e75781516105ce8882610571565b97506105d983610589565b9250506001810190506105ba565b5085935050505092915050565b6000602082019050818103600083015261060e8184610596565b905092915050565b7f4e487b7100000000000000000000000000000000000000000000000000000000600052601160045260246000fd5b6000610650826104d0565b915061065b836104d0565b925082820190508082111561067357610672610616565b5b92915050565b600081519050919050565b600082825260208201905092915050565b60005b838110156106b3578082015181840152602081019050610698565b60008484015250505050565b6000601f19601f8301169050919050565b60006106db82610679565b6106e58185610684565b93506106f5818560208601610695565b6106fe816106bf565b840191505092915050565b6000602082019050818103600083015261072381846106d0565b905092915050565b61073481610550565b82525050565b6000604082019050818103600083015261075481856106d0565b9050610763602083018461072b565b9392505050565b6000604082019050818103600083015261078481856106d0565b905061079360208301846104da565b939250505056fea2646970667358221220d43b3c70477d59d97bf991de7077c3ec400e262730c5282c5f360bb813b4be5a64736f6c63430008110033596f20796f2c204920616d206120636f6e747261637420616e64204920616d20736d617274",
    "linkReferences": {},
    "deployedLinkReferences": {}
}