{
  "_format": "hh-sol-artifact-1",
  "contractName": "WavePortal",
  "sourceName": "contracts/WavePortal.sol",
  "abi": [
    {
      "inputs": [],
      "stateMutability": "nonpayable",
      "type": "constructor"
    },
    {
      "inputs": [],
      "name": "getTotalWaves",
      "outputs": [
        {
          "internalType": "uint256",
          "name": "",
          "type": "uint256"
        }
      ],
      "stateMutability": "view",
      "type": "function"
    },
    {
      "inputs": [],
      "name": "getWhoInteracted",
      "outputs": [
        {
          "internalType": "address[]",
          "name": "",
          "type": "address[]"
        }
      ],
      "stateMutability": "view",
      "type": "function"
    },
    {
      "inputs": [],
      "name": "wave",
      "outputs": [],
      "stateMutability": "nonpayable",
      "type": "function"
    }
  ],
  "bytecode": "0x608060405234801561001057600080fd5b506100596040518060400160405280601b81526020017f596f2c20796f2c204920616d20736d6172742d636f6e7472616374000000000081525061005e60201b6102661760201c565b6101e1565b6100fa81604051602401610072919061015f565b6040516020818303038152906040527f41304fac000000000000000000000000000000000000000000000000000000007bffffffffffffffffffffffffffffffffffffffffffffffffffffffff19166020820180517bffffffffffffffffffffffffffffffffffffffffffffffffffffffff83818316178352505050506100fd60201b60201c565b50565b60008151905060006a636f6e736f6c652e6c6f679050602083016000808483855afa5050505050565b600061013182610181565b61013b818561018c565b935061014b81856020860161019d565b610154816101d0565b840191505092915050565b600060208201905081810360008301526101798184610126565b905092915050565b600081519050919050565b600082825260208201905092915050565b60005b838110156101bb5780820151818401526020810190506101a0565b838111156101ca576000848401525b50505050565b6000601f19601f8301169050919050565b61078b806101f06000396000f3fe608060405234801561001057600080fd5b50600436106100415760003560e01c80636fe15b44146100465780639a2cdc0814610050578063cc566d831461006e575b600080fd5b61004e61008c565b005b610058610149565b60405161006591906105e0565b60405180910390f35b610076610194565b604051610083919061053c565b60405180910390f35b600160008082825461009e9190610650565b925050819055506001339080600181540180825580915050600190039060005260206000200160009091909190916101000a81548173ffffffffffffffffffffffffffffffffffffffff021916908373ffffffffffffffffffffffffffffffffffffffff1602179055506101476040518060400160405280600d81526020017f2573206861642077617665642100000000000000000000000000000000000000815250336102ff565b565b600061018c6040518060400160405280601681526020017f5765206861766520256420746f74616c2077617665640000000000000000000081525060005461039b565b600054905090565b60606101da6040518060400160405280601581526020017f5765206861766520256420696e7465726163746564000000000000000000000081525060018054905061039b565b600180548060200260200160405190810160405280929190818152602001828054801561025c57602002820191906000526020600020905b8160009054906101000a900473ffffffffffffffffffffffffffffffffffffffff1673ffffffffffffffffffffffffffffffffffffffff1681526020019060010190808311610212575b5050505050905090565b6102fc8160405160240161027a919061055e565b6040516020818303038152906040527f41304fac000000000000000000000000000000000000000000000000000000007bffffffffffffffffffffffffffffffffffffffffffffffffffffffff19166020820180517bffffffffffffffffffffffffffffffffffffffffffffffffffffffff8381831617835250505050610437565b50565b6103978282604051602401610315929190610580565b6040516020818303038152906040527f319af333000000000000000000000000000000000000000000000000000000007bffffffffffffffffffffffffffffffffffffffffffffffffffffffff19166020820180517bffffffffffffffffffffffffffffffffffffffffffffffffffffffff8381831617835250505050610437565b5050565b61043382826040516024016103b19291906105b0565b6040516020818303038152906040527f9710a9d0000000000000000000000000000000000000000000000000000000007bffffffffffffffffffffffffffffffffffffffffffffffffffffffff19166020820180517bffffffffffffffffffffffffffffffffffffffffffffffffffffffff8381831617835250505050610437565b5050565b60008151905060006a636f6e736f6c652e6c6f679050602083016000808483855afa5050505050565b600061046c8383610478565b60208301905092915050565b610481816106a6565b82525050565b610490816106a6565b82525050565b60006104a18261060b565b6104ab818561062e565b93506104b6836105fb565b8060005b838110156104e75781516104ce8882610460565b97506104d983610621565b9250506001810190506104ba565b5085935050505092915050565b60006104ff82610616565b610509818561063f565b93506105198185602086016106e2565b61052281610744565b840191505092915050565b610536816106d8565b82525050565b600060208201905081810360008301526105568184610496565b905092915050565b6000602082019050818103600083015261057881846104f4565b905092915050565b6000604082019050818103600083015261059a81856104f4565b90506105a96020830184610487565b9392505050565b600060408201905081810360008301526105ca81856104f4565b90506105d9602083018461052d565b9392505050565b60006020820190506105f5600083018461052d565b92915050565b6000819050602082019050919050565b600081519050919050565b600081519050919050565b6000602082019050919050565b600082825260208201905092915050565b600082825260208201905092915050565b600061065b826106d8565b9150610666836106d8565b9250827fffffffffffffffffffffffffffffffffffffffffffffffffffffffffffffffff0382111561069b5761069a610715565b5b828201905092915050565b60006106b1826106b8565b9050919050565b600073ffffffffffffffffffffffffffffffffffffffff82169050919050565b6000819050919050565b60005b838110156107005780820151818401526020810190506106e5565b8381111561070f576000848401525b50505050565b7f4e487b7100000000000000000000000000000000000000000000000000000000600052601160045260246000fd5b6000601f19601f830116905091905056fea264697066735822122002a8ba3c163350fc7fbed2e02deaff204b90f8421078c612b7f4a95254a061c964736f6c63430008040033",
  "linkReferences": {},
  "deployedLinkReferences": {}
}